:1000000014C02CC02BC02AC00FC228C027C026C0D5
:1000100025C024C023C0E3C021C020C01FC01EC013
:100020001DC01CC01BC01AC019C011241FBECFEDBB
:10003000CDBF10E0A0E6B0E0E0EEF4E002C0059035
:100040000D92A837B107D9F720E0A8E7B0E001C0CA
:100050001D92A638B207E1F7A1D040C2D1CF899A4C
:100060000895E82FF0E0E05AFF4F808190E071D0D2
:10007000919A91980895C8D120917D0030917E0089
:100080008217930709F458C096B3937080917C004F
:10009000933081F1853018F48F5F80937C008091DC
:1000A0007C00853009F043C086B3837080937B0069
:1000B0002091790030917A00283C310550F420914C
:1000C000790030917A002F5F3F4F30937A00209370
:1000D00079002091790030917A00273C310539F57B
:1000E00091E090937800813019F0823039F11FC08F
:1000F00081E008958823D9F0815080937C0010928C
:100100007A0010927900811112C0809178008130BC
:1001100019F4109278000BC080917B00813029F097
:10012000823071F010927B0002C083E008956CD1A0
:1001300090937E0080937D0084E0089580E0089590
:1001400082E00895909A9698089587B3806C87BB53
:1001500008958FB9769A769904C08DB18B618DB967
:10016000FACF8FB108958B3229F08C3331F08A3178
:1001700029F4E8CF9098969A0895969808957BDF91
:10018000843059F0823019F0833029F00895809B33
:10019000D9CF8BE201C08CE3E6CF089580E886BD1D
:1001A00016BC81B38D6781BB88B3836088BB969A88
:1001B000479A8BB780628BBF80B5806180BD80D14C
:1001C000C4DF4DDF61E082E098D082E790E00FD19C
:1001D0008DE690E005D1789417D1D1DFFECF1F9244
:1001E0000F920FB60F9211242F933F934F935F936B
:1001F0006F937F938F939F93AF93BF93EF93FF93EF
:10020000D1D0882331F084E890E057D080918400E9
:10021000AADFFF91EF91BF91AF919F918F917F9155
:100220006F915F914F913F912F910F900FBE0F9063
:100230001F901895C3988FEF90E08BDFC39A0895B5
:10024000EF92FF920F931F93CF93DF93EC018B01FB
:100250007C01E40EF11CCE15DF0539F0899190E0A8
:1002600078DFF80181938F01F6CFDF91CF911F9155
:100270000F91FF90EF9008950F931F93CF93DF930B
:10028000EC018C01060F111DC017D10721F08991D7
:1002900090E05FDFF9CFDF91CF911F910F9108952B
:1002A000CF93C62FC3988F71806290E052DF8C2F5E
:1002B00090E04FDFC39ACF910895CF93DF93EC0185
:1002C000C39881E690E045DF40918500BE01CE01F4
:1002D000B7DFC39A60E487E0DF91CF91E1CFC398A5
:1002E00082EE90E036DFC39A60E787E0D9DFC298FC
:1002F0006BE080E0D5DFC29A0895CF93C62FBB9AFA
:10030000BA9AC398C298682F85E0CADFC093850067
:1003100060E081E1C5DF6091850082E1C1DF60E0DE
:1003200083E1BEDF60E084E1BBDF60E085E1B8DF50
:1003300060E086E1B5DF66E286E0B2DF68E080E09B
:10034000AFDF63E081E0ACDF63E082E0A9DF6FE470
:1003500084E0A6DF60E08CE1A3DFCF91C0CF1F93E4
:10036000CF93DF93EB01142FC3988F7190E0F1DEF0
:10037000412FBE01CE0164DFC39ADF91CF911F915F
:100380000895CF93DF931F92CDB7DD2741E0BE01E3
:100390006F5F7F4F87E1E3DF898181700F90DF918D
:1003A000CF91089547DF86FD06C0EBDF91E08823FB
:1003B00019F090E001C091E0892F08951F93CF9329
:1003C000DF93EB01142FC3988F71806290E0C1DE40
:1003D000612FCE0151DFC39ADF91CF911F91089514
:1003E000C29845E0BC018BE0E9DFC29A0895CF9343
:1003F000DF93EC0145E0BC018AE0E0DF45E0BE01AF
:1004000080E1DF91CF91DACF8FB7F894209182000D
:100410003091830030938100209380008FBF8091C2
:1004200080009091810008951F920F920FB60F9255
:1004300011242F933F934F935F936F937F938F93E9
:100440009F93AF93BF93EF93FF938091820090911E
:1004500083000596909383008093820080917F00B3
:100460008F5F80937F00823059F0833081F081303C
:10047000B1F482B3886382BB80E0F3DD93980FC050
:1004800082B3886382BB81E0ECDD949808C082B3BC
:10049000886382BB82E0E5DD959810927F00FF9132
:1004A000EF91BF91AF919F918F917F916F915F91EC
:1004B0004F913F912F910F900FBE0F901F90189565
:1004C0008FE295E79BBD8ABD8EB588608EBD8EB5E7
:1004D00081608EBD89B7806489BF0895F894FFCF8D
:1004E000096F51432783814F010309950DE7E7E722
:0804F000E7E7D7D7D7D7D70003
:00000001FF
