S01300005472616E736365697665722E737265638B
S113000014C02CC02BC02AC029C028C027C026C0B9
S113001025C024C023C011C221C020C01FC01EC0DF
S11300201DC01CC01BC01AC0B8C111241FBECFED17
S1130030CDBF10E0A0E6B0E0E4E3F5E002C0059037
S11300400D92AA36B107D9F720E0AAE6B0E001C0C4
S11300501D92AD36B207E1F73CD26AC2D1CF87B365
S1130060806C87BB08958FB98EB180648EB903C04C
S11300708DB18B618DB9769BFBCF8FB1089588B319
S11300808F7E88BB8FEFEFDF98B3906198BB0895A4
S1130090F6DF85FD04C084FF04C081E0089580E09C
S11300A008958FEF08950F931F93CF93DF938C01DF
S11300B0D62FC0E006C0F801EC0FF11D8081D3DF1C
S11300C0CF5FCD17C0F3DF91CF911F910F910895AA
S11300D0CF93C62F98B39F7E98BB8F718062C3DF86
S11300E08C2FC1DF88B3806188BBCF91089588B31A
S11300F08F7E88BB82EEB7DF88B3806188BB60E700
S113010087E0E6DF88B3877F88BB6BE080E0E0DFD1
S113011088B3886088BB0895CF93C62F97B3906146
S113012097BB97B3986097BB98B39F7E98BB98B3DF
S1130130977F98BB682F85E0CBDFC0936C0060E0AD
S113014081E1C6DF60916C0082E1C2DF60E083E19F
S1130150BFDF60E084E1BCDF60E085E1B9DF60E03F
S113016086E1B6DF66E286E0B3DF68E080E0B0DF18
S113017063E081E0ADDF63E082E0AADF6FE484E066
S1130180A7DF60E08CE1A4DFB2DFCF91089560E7E0
S113019087E09EDF6AE080E09BDF0895CF93DF93E2
S11301A0EC0188B3877F88BBF2DF88B38F7E88BB7E
S11301B081EE59DF88B3806188BB88B38F7E88BBAA
S11301C080EA51DF60916C00CE016DDF88B38061FD
S11301D088BB88B3886088BBDF91CF91089588B3CA
S11301E0877F88BB68E080E073DF08951F93CF9317
S11301F0DF93EB01142F98B39F7E98BB8F718062BD
S113020032DF612FCE014FDF88B3806188BBDF917D
S1130210CF911F910895BC0198B3977F98BB45E097
S11302208BE0E4DF88B3886088BB0895CF93DF93C5
S1130230EC0145E0BC018AE0D9DF45E0BE0180E184
S1130240D5DFDF91CF91089580916B008B3209F453
S113025049C030F4882309F49CC08A31E1F0089540
S11302608C3309F453C08D3409F464C0089582B307
S1130270806282BBE9EFF0E03197F1F700C0000043
S113028082B38F7D82BBE9EFF0E03197F1F700C0D4
S113029000009F5F01C090E0923348F390E00FC0EC
S11302A082B3806282BBF6EAFA95F1F700C082B3AA
S11302B08F7D82BB86EA8A95F1F700C09F5F9436F2
S11302C078F3089582B3806282BBE6EAEA95F1F797
S11302D000C082B38F7D82BBF6EAFA95F1F700C0C5
S11302E09F5F01C090E0943668F3089582B3806202
S11302F082BB86EA8A95F1F700C082B38F7D82BB08
S1130300E6EAEA95F1F700C09F5F01C090E09436F9
S113031068F3089582B3806282BBF6EAFA95F1F736
S113032000C082B38F7D82BB86EA8A95F1F700C054
S11303309F5F01C090E0943668F390E013C082B3ED
S1130340806282BBE9EFF0E03197F1F700C0000072
S113035082B38F7D82BBE9EFF0E03197F1F700C003
S113036000009F5F923358F3089582B3806282BB8A
S1130370E9EFF0E03197F1F700C0000082B38F7D20
S113038082BBE9EFF0E03197F1F700C000009F5F16
S113039001C090E0943648F308951F920F920FB66F
S11303A00F9211242F933F934F935F936F937F93F7
S11303B08F939F93AF93BF93EF93FF9383ED90E35A
S11303C00197F1F700C00000809908C08AE180938A
S11303D06B00809BFECF8BE690E0E0DE819908C045
S11303E08BE280936B00819BFECF8BE690E0D6DEA0
S11303F0829908C08CE380936B00829BFECF8BE6CE
S113040090E0CCDE849908C08DE480936B00849BDB
S1130410FECF8BE690E0C2DEFF91EF91BF91AF91EA
S11304209F918F917F916F915F914F913F912F9108
S11304300F900FBE0F901F9018951F920F920FB63A
S11304400F9211242F933F934F935F936F937F9356
S11304508F939F93AF93BF93EF93FF9319DE811113
S11304600AC060E287E034DEBADEEEDE10926B0092
S113047010926A001DC08130D9F480916A008931DC
S113048089F060E187E024DE83EEEDDD88B3877FC9
S113049088BB88B3886088BB80916A008F5F809333
S11304A06A0006C09CDE10926A0010926B00CCDEDB
S11304B0FF91EF91BF91AF919F918F917F916F9138
S11304C05F914F913F912F910F900FBE0F901F900E
S11304D0189580E886BD82E086BD81B3806281BBC9
S11304E082B38F6582BB88B3866088BB8FEF8BBB7A
S11304F0B6DD61E082E010DE85E690E097DE80E61E
S113050090E089DE8BB780638BBF85B1876185B945
S113051080B5816080BD86B18D6086B985B7806500
S113052085BF78945CDE85B7806285BF8895FBCFF4
S1070530F894FFCF69
S10D0534D7D7D7D7D7E7E7E7E7E703
S9030000FC
